:100000000C9434000C943E000C943E000C943E0082
:100010000C943E000C943E000C943E000C943E0068
:100020000C943E000C943E000C943E000C94400056
:100030000C943E000C943E000C943E000C943E0048
:100040000C943E000C943E000C943E000C943E0038
:100050000C943E000C943E000C943E000C943E0028
:100060000C943E000C943E0011241FBECFEFD8E04C
:10007000DEBFCDBF0E9456000C946F000C940000B0
:100080001F920F920FB60F9211248F939F9395B1E9
:1000900080E3892785B910928500109284009F9192
:1000A0008F910F900FBE0F901F90189584B18063B1
:1000B00084B92D9A109285001092840089E09DE306
:1000C000909389008093880085E08093810088E088
:1000D0008093800082E080936F007894FFCFF89443
:0200E000FFCF50
:00000001FF
